{
  "contractName": "Game",
  "abi": [
    {
      "constant": true,
      "inputs": [],
      "name": "quiz_master",
      "outputs": [
        {
          "name": "",
          "type": "address"
        }
      ],
      "payable": false,
      "stateMutability": "view",
      "type": "function"
    },
    {
      "constant": true,
      "inputs": [],
      "name": "pfee",
      "outputs": [
        {
          "name": "",
          "type": "uint256"
        }
      ],
      "payable": false,
      "stateMutability": "view",
      "type": "function"
    },
    {
      "inputs": [
        {
          "name": "num_players",
          "type": "uint256"
        },
        {
          "name": "regpfee",
          "type": "uint256"
        }
      ],
      "payable": false,
      "stateMutability": "nonpayable",
      "type": "constructor"
    },
    {
      "constant": false,
      "inputs": [
        {
          "name": "ans_arr",
          "type": "uint256[4]"
        }
      ],
      "name": "registerplayers",
      "outputs": [],
      "payable": true,
      "stateMutability": "payable",
      "type": "function"
    },
    {
      "constant": true,
      "inputs": [],
      "name": "getplayers",
      "outputs": [
        {
          "name": "",
          "type": "address[]"
        }
      ],
      "payable": false,
      "stateMutability": "view",
      "type": "function"
    },
    {
      "constant": false,
      "inputs": [
        {
          "name": "ans",
          "type": "uint256[4]"
        }
      ],
      "name": "pickWinner",
      "outputs": [
        {
          "name": "",
          "type": "address"
        }
      ],
      "payable": false,
      "stateMutability": "nonpayable",
      "type": "function"
    },
    {
      "constant": true,
      "inputs": [
        {
          "name": "a",
          "type": "uint256"
        },
        {
          "name": "b",
          "type": "uint256"
        },
        {
          "name": "precision",
          "type": "uint256"
        }
      ],
      "name": "calcul",
      "outputs": [
        {
          "name": "",
          "type": "uint256"
        }
      ],
      "payable": false,
      "stateMutability": "view",
      "type": "function"
    }
  ],
  "bytecode": "0x608060405234801561001057600080fd5b50604051604080610e8b8339810180604052810190808051906020019092919080519060200190929190505050336000806101000a81548173ffffffffffffffffffffffffffffffffffffffff021916908373ffffffffffffffffffffffffffffffffffffffff1602179055508160048190555060045481026003819055505050610deb806100a06000396000f300608060405260043610610078576000357c0100000000000000000000000000000000000000000000000000000000900463ffffffff168063597848151461007d5780635d7a2c58146100d45780636c31ab87146101195780636fe2df87146101ab5780637c89f11514610200578063ecb3db521461022b575b600080fd5b34801561008957600080fd5b50610092610297565b604051808273ffffffffffffffffffffffffffffffffffffffff1673ffffffffffffffffffffffffffffffffffffffff16815260200191505060405180910390f35b61011760048036038101908080608001906004806020026040519081016040528092919082600460200280828437820191505050505091929192905050506102bc565b005b34801561012557600080fd5b506101696004803603810190808060800190600480602002604051908101604052809291908260046020028082843782019150505050509192919290505050610418565b604051808273ffffffffffffffffffffffffffffffffffffffff1673ffffffffffffffffffffffffffffffffffffffff16815260200191505060405180910390f35b3480156101b757600080fd5b506101ea600480360381019080803590602001909291908035906020019092919080359060200190929190505050610bff565b6040518082815260200191505060405180910390f35b34801561020c57600080fd5b50610215610c1b565b6040518082815260200191505060405180910390f35b34801561023757600080fd5b50610240610c21565b6040518080602001828103825283818151815260200191508051906020019060200280838360005b83811015610283578082015181840152602081019050610268565b505050509050019250505060405180910390f35b6000809054906101000a900473ffffffffffffffffffffffffffffffffffffffff1681565b60025434141515610335576040517f08c379a000000000000000000000000000000000000000000000000000000000815260040180806020018281038252601c8152602001807f4e6f7420456e6f7567682050617274696369706174696f6e204665650000000081525060200191505060405180910390fd5b60045460018054905010151561034a57600080fd5b60016060604051908101604052803373ffffffffffffffffffffffffffffffffffffffff168152602001838152602001438152509080600181540180825580915050906001820390600052602060002090600602016000909192909190915060008201518160000160006101000a81548173ffffffffffffffffffffffffffffffffffffffff021916908373ffffffffffffffffffffffffffffffffffffffff160217905550602082015181600101906004610407929190610d1d565b506040820151816005015550505050565b6000806000806000806000806000809054906101000a900473ffffffffffffffffffffffffffffffffffffffff1673ffffffffffffffffffffffffffffffffffffffff163373ffffffffffffffffffffffffffffffffffffffff1614151561050e576040517f08c379a00000000000000000000000000000000000000000000000000000000081526004018080602001828103825260358152602001807f4f6e6c79207175697a206d617374657220697320616c6c6f77656420746f207081526020017f6572666f726d2074686973206f7065726174696f6e000000000000000000000081525060400191505060405180910390fd5b88600060048110151561051d57fe5b6020020151876000018190555088600160048110151561053957fe5b6020020151876001018190555088600260048110151561055557fe5b6020020151876002018190555088600360048110151561057157fe5b60200201518760030181905550600094505b600180549050851015610bf05786600001546001868154811015156105a457fe5b906000526020600020906006020160010160006004811015156105c357fe5b015414156106af578560006004811015156105da57fe5b016001868154811015156105ea57fe5b9060005260206000209060060201908060018154018082558091505090600182039060005260206000209060060201600090919290919091506000820160009054906101000a900473ffffffffffffffffffffffffffffffffffffffff168160000160006101000a81548173ffffffffffffffffffffffffffffffffffffffff021916908373ffffffffffffffffffffffffffffffffffffffff16021790555060018201816001019060046106a0929190610d5d565b50600582015481600501555050505b86600101546001868154811015156106c357fe5b906000526020600020906006020160010160016004811015156106e257fe5b015414156107ce578560016004811015156106f957fe5b0160018681548110151561070957fe5b9060005260206000209060060201908060018154018082558091505090600182039060005260206000209060060201600090919290919091506000820160009054906101000a900473ffffffffffffffffffffffffffffffffffffffff168160000160006101000a81548173ffffffffffffffffffffffffffffffffffffffff021916908373ffffffffffffffffffffffffffffffffffffffff16021790555060018201816001019060046107bf929190610d5d565b50600582015481600501555050505b86600201546001868154811015156107e257fe5b9060005260206000209060060201600101600260048110151561080157fe5b015414156108ed5785600260048110151561081857fe5b0160018681548110151561082857fe5b9060005260206000209060060201908060018154018082558091505090600182039060005260206000209060060201600090919290919091506000820160009054906101000a900473ffffffffffffffffffffffffffffffffffffffff168160000160006101000a81548173ffffffffffffffffffffffffffffffffffffffff021916908373ffffffffffffffffffffffffffffffffffffffff16021790555060018201816001019060046108de929190610d5d565b50600582015481600501555050505b866003015460018681548110151561090157fe5b9060005260206000209060060201600101600360048110151561092057fe5b01541415610a0c5785600360048110151561093757fe5b0160018681548110151561094757fe5b9060005260206000209060060201908060018154018082558091505090600182039060005260206000209060060201600090919290919091506000820160009054906101000a900473ffffffffffffffffffffffffffffffffffffffff168160000160006101000a81548173ffffffffffffffffffffffffffffffffffffffff021916908373ffffffffffffffffffffffffffffffffffffffff16021790555060018201816001019060046109fd929190610d5d565b50600582015481600501555050505b600093505b6004841015610be3578584600481101515610a2857fe5b016000815481101515610a3757fe5b906000526020600020906006020160000160009054906101000a900473ffffffffffffffffffffffffffffffffffffffff1692508584600481101515610a7957fe5b016000815481101515610a8857fe5b9060005260206000209060060201600501549150600090505b8584600481101515610aaf57fe5b0180549050811015610b7e578584600481101515610ac957fe5b0181815481101515610ad757fe5b906000526020600020906006020160050154821015610b71578584600481101515610afe57fe5b0181815481101515610b0c57fe5b90600052602060002090600602016005015491508584600481101515610b2e57fe5b0181815481101515610b3c57fe5b906000526020600020906006020160000160009054906101000a900473ffffffffffffffffffffffffffffffffffffffff1692505b8080600101915050610aa1565b8273ffffffffffffffffffffffffffffffffffffffff166108fc600354610ba9600360106004610bff565b029081150290604051600060405180830381858888f19350505050158015610bd5573d6000803e3d6000fd5b508380600101945050610a11565b8480600101955050610583565b82975050505050505050919050565b60008282600a0a8502811515610c1157fe5b0490509392505050565b60025481565b606080600080600180549050604051908082528060200260200182016040528015610c5b5781602001602082028038833980820191505090505b50925060009150600090505b600180549050811015610d1457600181815481101515610c8357fe5b906000526020600020906006020160000160009054906101000a900473ffffffffffffffffffffffffffffffffffffffff168383815181101515610cc357fe5b9060200190602002019073ffffffffffffffffffffffffffffffffffffffff16908173ffffffffffffffffffffffffffffffffffffffff168152505081806001019250508080600101915050610c67565b82935050505090565b8260048101928215610d4c579160200282015b82811115610d4b578251825591602001919060010190610d30565b5b509050610d599190610d9a565b5090565b8260048101928215610d89579182015b82811115610d88578254825591600101919060010190610d6d565b5b509050610d969190610d9a565b5090565b610dbc91905b80821115610db8576000816000905550600101610da0565b5090565b905600a165627a7a72305820b7775fac35cb6eb5a635cf2c0ade583a04246b6df5b718b5f78a038a36658d810029",
  "source": "\npragma solidity ^0.4.24;\n\ncontract Game \n{\n    \n    struct Question_Paper\n    {\n        uint256 correct_ans_1;\n        uint256 correct_ans_2;\n        uint256 correct_ans_3;\n        uint256 correct_ans_4;\n    }\n    \n    struct Player\n    {\n        address account; // stores his adress\n        uint256[4] ans_arr; // stores his 4 answers\n        uint256 time_stamp ; // stores the block number\n    }\n    \n    address public quiz_master; // adress of the quizmaster i.e the host of the game\n    Player[] private players; //will store a list of all the players registered for the game\n    uint public pfee; // stores the participation fees of each player\n    uint tfee; // total fees of the game\n    uint256 _totalplayers ;\n    \n    function registerplayers(uint256[4] ans_arr) public payable // function to register the players\n    {\n        require(msg.value == pfee,\"Not Enough Participation Fee\"); // the value must be greater than the pfee\n        require(players.length < _totalplayers); // number of players currently registers should be less than the total number of players allowed\n        players.push(Player(msg.sender, ans_arr, block.number)); // push that player and his 4 choices in the player array\n\n    }\n    \n    \n    // function regpfee(uint256 _pfee) public\n    // {\n    //     pfee = _pfee;\n    // }\n    \n    function getplayers() external view returns(address[]) //displays all registered players so far\n    {\n        address[] memory ids = new address[](players.length);\n        uint counter = 0;\n        for(uint i = 0; i < players.length; i++)\n        {\n            ids[counter] = players[i].account;\n            counter++;\n        }\n        return ids;\n    }\n    \n    modifier restricted()\n    {\n        // Ensure the participant awarding the ether is the manager\n        require(msg.sender == quiz_master,\"Only quiz master is allowed to perform this operation\");\n        _;\n    }\n    \n    function random() private view returns (uint)\n    {\n        return uint(keccak256(block.difficulty, now, players.length));\n    }\n    \n    function pickWinner(uint256[4]ans) public restricted returns(address)\n    {\n        \n        Question_Paper storage question; // Question paper declared\n        question.correct_ans_1 = ans[0]; // correct ans decided by quiz_master as this is a restricted function\n        question.correct_ans_2 = ans[1];\n        question.correct_ans_3 = ans[2];\n        question.correct_ans_4 = ans[3];\n        Player[][4] q_correct_ans; // stores the ans for all the players in all the questions\n        for(uint i = 0;i < players.length; i++)\n        {\n            if(players[i].ans_arr[0] == question.correct_ans_1)\n            {\n                q_correct_ans[0].push(players[i]); // getting possible winnners of q1 based on ans\n            }\n            if(players[i].ans_arr[1] == question.correct_ans_2)\n            {\n                q_correct_ans[1].push(players[i]); // getting possible winners of q2 based on ans\n            }\n            if(players[i].ans_arr[2] == question.correct_ans_3)\n            {\n                q_correct_ans[2].push(players[i]); // getting possible winners of q3 based on ans\n            }\n            if(players[i].ans_arr[3] == question.correct_ans_4)\n            {\n                q_correct_ans[3].push(players[i]); // getting possible winners of q4 based on ans\n            }\n            \n            for(uint j = 0; j < 4; j++) // For each question\n            {\n                address round_winner;\n                uint256 round_stamp;\n                round_winner = q_correct_ans[j][0].account; // stores that question's winner's address\n                round_stamp = q_correct_ans[j][0].time_stamp; // stores that question's winning time stamp\n                for(uint k = 0; k < q_correct_ans[j].length; k++) // For Each Player\n                {\n                    if(round_stamp < q_correct_ans[j][k].time_stamp) // If time stamp is greater then replace winner\n                    {\n                        round_stamp = q_correct_ans[j][k].time_stamp;\n                        round_winner = q_correct_ans[j][k].account;\n                    }\n                }\n                round_winner.transfer(calcul(3,16,4)*tfee); // Need to send this amount to the account, But some error in Remix Right Now\n                \n            }\n        }\n\n        return round_winner;\n    }\n    \n    function calcul(uint a, uint b, uint precision) view returns ( uint) { // just a multiplier with specified precision\n\n     return a*(10**precision)/b;\n    }\n    \n    constructor (uint num_players, uint regpfee) public { //quiz master will dictate # of players and pfee\n        quiz_master = msg.sender;// store the address of the quiz_master\n        _totalplayers = num_players;\n        tfee = regpfee * _totalplayers;\n    }\n    \n}\n\n//msg.sender.transfer(amount);",
  "sourcePath": "/Users/arghyabhattacharya/Documents/college/Blockchain/contract/contracts/quiz.sol",
  "compiler": {
    "name": "solc",
    "version": "0.4.24+commit.e67f0147.Emscripten.clang"
  },
  "schemaVersion": "2.0.1",
  "updatedAt": "2018-11-01T18:55:06.592Z"
}