{
  "contractName": "Quiz",
  "abi": [
    {
      "constant": true,
      "inputs": [],
      "name": "curr_len",
      "outputs": [
        {
          "name": "",
          "type": "uint256"
        }
      ],
      "payable": false,
      "stateMutability": "view",
      "type": "function"
    },
    {
      "constant": true,
      "inputs": [],
      "name": "quiz_master",
      "outputs": [
        {
          "name": "",
          "type": "address"
        }
      ],
      "payable": false,
      "stateMutability": "view",
      "type": "function"
    },
    {
      "constant": true,
      "inputs": [],
      "name": "regpfee",
      "outputs": [
        {
          "name": "",
          "type": "uint256"
        }
      ],
      "payable": false,
      "stateMutability": "view",
      "type": "function"
    },
    {
      "constant": true,
      "inputs": [
        {
          "name": "",
          "type": "address"
        }
      ],
      "name": "isWinner",
      "outputs": [
        {
          "name": "",
          "type": "bool"
        }
      ],
      "payable": false,
      "stateMutability": "view",
      "type": "function"
    },
    {
      "constant": true,
      "inputs": [],
      "name": "tplayers",
      "outputs": [
        {
          "name": "",
          "type": "uint256"
        }
      ],
      "payable": false,
      "stateMutability": "view",
      "type": "function"
    },
    {
      "inputs": [
        {
          "name": "num_players",
          "type": "uint256"
        },
        {
          "name": "registrationFee",
          "type": "uint256"
        }
      ],
      "payable": true,
      "stateMutability": "payable",
      "type": "constructor"
    },
    {
      "constant": false,
      "inputs": [
        {
          "name": "ans_arr",
          "type": "uint256[4]"
        }
      ],
      "name": "registerplayers",
      "outputs": [
        {
          "name": "",
          "type": "uint256"
        }
      ],
      "payable": true,
      "stateMutability": "payable",
      "type": "function"
    },
    {
      "constant": false,
      "inputs": [],
      "name": "getnumplayers",
      "outputs": [
        {
          "name": "",
          "type": "uint256"
        }
      ],
      "payable": false,
      "stateMutability": "nonpayable",
      "type": "function"
    },
    {
      "constant": true,
      "inputs": [],
      "name": "getplayers",
      "outputs": [
        {
          "name": "",
          "type": "address[]"
        }
      ],
      "payable": false,
      "stateMutability": "view",
      "type": "function"
    },
    {
      "constant": false,
      "inputs": [],
      "name": "registrationComplete",
      "outputs": [],
      "payable": false,
      "stateMutability": "nonpayable",
      "type": "function"
    },
    {
      "constant": false,
      "inputs": [
        {
          "name": "ans",
          "type": "uint256[4]"
        }
      ],
      "name": "pickWinner",
      "outputs": [],
      "payable": true,
      "stateMutability": "payable",
      "type": "function"
    },
    {
      "constant": true,
      "inputs": [
        {
          "name": "a",
          "type": "uint256"
        },
        {
          "name": "b",
          "type": "uint256"
        },
        {
          "name": "precision",
          "type": "uint256"
        }
      ],
      "name": "calcul",
      "outputs": [
        {
          "name": "",
          "type": "uint256"
        }
      ],
      "payable": false,
      "stateMutability": "view",
      "type": "function"
    },
    {
      "constant": false,
      "inputs": [],
      "name": "masterClaim",
      "outputs": [],
      "payable": false,
      "stateMutability": "nonpayable",
      "type": "function"
    },
    {
      "constant": false,
      "inputs": [],
      "name": "claim",
      "outputs": [
        {
          "name": "",
          "type": "uint256"
        }
      ],
      "payable": false,
      "stateMutability": "nonpayable",
      "type": "function"
    }
  ],
  "bytecode": "0x60806040526000600455600060055560405160408061178e8339810180604052810190808051906020019092919080519060200190929190505050336000806101000a81548173ffffffffffffffffffffffffffffffffffffffff021916908373ffffffffffffffffffffffffffffffffffffffff1602179055508060028190555081600254026003819055508160048190555050506116ea806100a46000396000f3006080604052600436106100c5576000357c0100000000000000000000000000000000000000000000000000000000900463ffffffff1680630cc73238146100ca57806329cfe93e146100e15780634e71d92d1461010c57806359784815146101375780635d7a2c581461018e57806365f2cb3d146101e7578063683e9445146101fe5780636c31ab87146102295780636fe2df871461026e5780639d9ca28d146102c3578063a3bed4e21461031e578063c32bf4fc14610349578063ecb3db5214610374575b600080fd5b3480156100d657600080fd5b506100df6103e0565b005b3480156100ed57600080fd5b506100f661059d565b6040518082815260200191505060405180910390f35b34801561011857600080fd5b506101216105a3565b6040518082815260200191505060405180910390f35b34801561014357600080fd5b5061014c610776565b604051808273ffffffffffffffffffffffffffffffffffffffff1673ffffffffffffffffffffffffffffffffffffffff16815260200191505060405180910390f35b6101d1600480360381019080806080019060048060200260405190810160405280929190826004602002808284378201915050505050919291929050505061079b565b6040518082815260200191505060405180910390f35b3480156101f357600080fd5b506101fc610abb565b005b34801561020a57600080fd5b50610213610cea565b6040518082815260200191505060405180910390f35b61026c6004803603810190808060800190600480602002604051908101604052809291908260046020028082843782019150505050509192919290505050610cf0565b005b34801561027a57600080fd5b506102ad6004803603810190808035906020019092919080359060200190929190803590602001909291905050506114d1565b6040518082815260200191505060405180910390f35b3480156102cf57600080fd5b50610304600480360381019080803573ffffffffffffffffffffffffffffffffffffffff1690602001909291905050506114ed565b604051808215151515815260200191505060405180910390f35b34801561032a57600080fd5b5061033361150d565b6040518082815260200191505060405180910390f35b34801561035557600080fd5b5061035e611513565b6040518082815260200191505060405180910390f35b34801561038057600080fd5b50610389611520565b6040518080602001828103825283818151815260200191508051906020019060200280838360005b838110156103cc5780820151818401526020810190506103b1565b505050509050019250505060405180910390f35b6000809054906101000a900473ffffffffffffffffffffffffffffffffffffffff1673ffffffffffffffffffffffffffffffffffffffff163373ffffffffffffffffffffffffffffffffffffffff161415156104ca576040517f08c379a00000000000000000000000000000000000000000000000000000000081526004018080602001828103825260358152602001807f4f6e6c79207175697a206d617374657220697320616c6c6f77656420746f207081526020017f6572666f726d2074686973206f7065726174696f6e000000000000000000000081525060400191505060405180910390fd5b6003543073ffffffffffffffffffffffffffffffffffffffff1631141515610580576040517f08c379a00000000000000000000000000000000000000000000000000000000081526004018080602001828103825260218152602001807f74466565206e6f7420657175616c20746f20636f6e747261637442616c616e6381526020017f650000000000000000000000000000000000000000000000000000000000000081525060400191505060405180910390fd5b6001600760006101000a81548160ff021916908315150217905550565b60055481565b6000806000600660003373ffffffffffffffffffffffffffffffffffffffff1673ffffffffffffffffffffffffffffffffffffffff16815260200190815260200160002060009054906101000a900460ff161515610669576040517f08c379a00000000000000000000000000000000000000000000000000000000081526004018080602001828103825260168152602001807f4f6e6c792077696e6e6572732063616e20636c61696d0000000000000000000081525060200191505060405180910390fd5b60035461067a6003601060046114d1565b0291503373ffffffffffffffffffffffffffffffffffffffff163190503373ffffffffffffffffffffffffffffffffffffffff166108fc839081150290604051600060405180830381858888f193505050501580156106dd573d6000803e3d6000fd5b503373ffffffffffffffffffffffffffffffffffffffff163182820114151561076e576040517f08c379a00000000000000000000000000000000000000000000000000000000081526004018080602001828103825260168152602001807f4e6f742052656365697665642062792057696e6e65720000000000000000000081525060200191505060405180910390fd5b819250505090565b6000809054906101000a900473ffffffffffffffffffffffffffffffffffffffff1681565b60008060008060009054906101000a900473ffffffffffffffffffffffffffffffffffffffff1673ffffffffffffffffffffffffffffffffffffffff163373ffffffffffffffffffffffffffffffffffffffff1614151515610865576040517f08c379a000000000000000000000000000000000000000000000000000000000815260040180806020018281038252601f8152602001807f5175697a206d61737465722063616e277420706c6179207468652067616d650081525060200191505060405180910390fd5b600254341415156108de576040517f08c379a000000000000000000000000000000000000000000000000000000000815260040180806020018281038252601d8152602001807f556e61636365707461626c6520526567697374726174696f6e2046656500000081525060200191505060405180910390fd5b600091505b60048210156109d85783826004811015156108fa57fe5b6020020151905060018114806109105750600281145b8061091b5750600381145b806109265750600481145b806109315750600081145b15156109cb576040517f08c379a000000000000000000000000000000000000000000000000000000000815260040180806020018281038252602b8152602001807f416e73776572206d75737420626520696e207b312c322c332c347d205b30206681526020017f6f7220756e6b6e6f776e5d00000000000000000000000000000000000000000081525060400191505060405180910390fd5b81806001019250506108e3565b60016060604051908101604052803373ffffffffffffffffffffffffffffffffffffffff168152602001868152602001438152509080600181540180825580915050906001820390600052602060002090600602016000909192909190915060008201518160000160006101000a81548173ffffffffffffffffffffffffffffffffffffffff021916908373ffffffffffffffffffffffffffffffffffffffff160217905550602082015181600101906004610a9592919061161c565b506040820151816005015550505060018054905060058190555060055492505050919050565b6000809054906101000a900473ffffffffffffffffffffffffffffffffffffffff1673ffffffffffffffffffffffffffffffffffffffff163373ffffffffffffffffffffffffffffffffffffffff16141515610ba5576040517f08c379a00000000000000000000000000000000000000000000000000000000081526004018080602001828103825260358152602001807f4f6e6c79207175697a206d617374657220697320616c6c6f77656420746f207081526020017f6572666f726d2074686973206f7065726174696f6e000000000000000000000081525060400191505060405180910390fd5b600354610bb560016004806114d1565b023073ffffffffffffffffffffffffffffffffffffffff1631141515610c69576040517f08c379a00000000000000000000000000000000000000000000000000000000081526004018080602001828103825260268152602001807f436f6e74726163742062616c616e6365206d6f7265207468616e20312f34206f81526020017f662074466565000000000000000000000000000000000000000000000000000081525060400191505060405180910390fd5b6000809054906101000a900473ffffffffffffffffffffffffffffffffffffffff1673ffffffffffffffffffffffffffffffffffffffff166108fc3073ffffffffffffffffffffffffffffffffffffffff16319081150290604051600060405180830381858888f19350505050158015610ce7573d6000803e3d6000fd5b50565b60025481565b60008060008060008060008060009054906101000a900473ffffffffffffffffffffffffffffffffffffffff1673ffffffffffffffffffffffffffffffffffffffff163373ffffffffffffffffffffffffffffffffffffffff16141515610de5576040517f08c379a00000000000000000000000000000000000000000000000000000000081526004018080602001828103825260358152602001807f4f6e6c79207175697a206d617374657220697320616c6c6f77656420746f207081526020017f6572666f726d2074686973206f7065726174696f6e000000000000000000000081525060400191505060405180910390fd5b876000600481101515610df457fe5b60200201518760000181905550876001600481101515610e1057fe5b60200201518760010181905550876002600481101515610e2c57fe5b60200201518760020181905550876003600481101515610e4857fe5b60200201518760030181905550600094505b6001805490508510156114c7578660000154600186815481101515610e7b57fe5b90600052602060002090600602016001016000600481101515610e9a57fe5b01541415610f8657856000600481101515610eb157fe5b01600186815481101515610ec157fe5b9060005260206000209060060201908060018154018082558091505090600182039060005260206000209060060201600090919290919091506000820160009054906101000a900473ffffffffffffffffffffffffffffffffffffffff168160000160006101000a81548173ffffffffffffffffffffffffffffffffffffffff021916908373ffffffffffffffffffffffffffffffffffffffff1602179055506001820181600101906004610f7792919061165c565b50600582015481600501555050505b8660010154600186815481101515610f9a57fe5b90600052602060002090600602016001016001600481101515610fb957fe5b015414156110a557856001600481101515610fd057fe5b01600186815481101515610fe057fe5b9060005260206000209060060201908060018154018082558091505090600182039060005260206000209060060201600090919290919091506000820160009054906101000a900473ffffffffffffffffffffffffffffffffffffffff168160000160006101000a81548173ffffffffffffffffffffffffffffffffffffffff021916908373ffffffffffffffffffffffffffffffffffffffff160217905550600182018160010190600461109692919061165c565b50600582015481600501555050505b86600201546001868154811015156110b957fe5b906000526020600020906006020160010160026004811015156110d857fe5b015414156111c4578560026004811015156110ef57fe5b016001868154811015156110ff57fe5b9060005260206000209060060201908060018154018082558091505090600182039060005260206000209060060201600090919290919091506000820160009054906101000a900473ffffffffffffffffffffffffffffffffffffffff168160000160006101000a81548173ffffffffffffffffffffffffffffffffffffffff021916908373ffffffffffffffffffffffffffffffffffffffff16021790555060018201816001019060046111b592919061165c565b50600582015481600501555050505b86600301546001868154811015156111d857fe5b906000526020600020906006020160010160036004811015156111f757fe5b015414156112e35785600360048110151561120e57fe5b0160018681548110151561121e57fe5b9060005260206000209060060201908060018154018082558091505090600182039060005260206000209060060201600090919290919091506000820160009054906101000a900473ffffffffffffffffffffffffffffffffffffffff168160000160006101000a81548173ffffffffffffffffffffffffffffffffffffffff021916908373ffffffffffffffffffffffffffffffffffffffff16021790555060018201816001019060046112d492919061165c565b50600582015481600501555050505b600093505b60048410156114ba5785846004811015156112ff57fe5b01600081548110151561130e57fe5b906000526020600020906006020160000160009054906101000a900473ffffffffffffffffffffffffffffffffffffffff169250858460048110151561135057fe5b01600081548110151561135f57fe5b9060005260206000209060060201600501549150600090505b858460048110151561138657fe5b01805490508110156114555785846004811015156113a057fe5b01818154811015156113ae57fe5b9060005260206000209060060201600501548210156114485785846004811015156113d557fe5b01818154811015156113e357fe5b9060005260206000209060060201600501549150858460048110151561140557fe5b018181548110151561141357fe5b906000526020600020906006020160000160009054906101000a900473ffffffffffffffffffffffffffffffffffffffff1692505b8080600101915050611378565b6001600660008573ffffffffffffffffffffffffffffffffffffffff1673ffffffffffffffffffffffffffffffffffffffff16815260200190815260200160002060006101000a81548160ff02191690831515021790555083806001019450506112e8565b8480600101955050610e5a565b5050505050505050565b60008282600a0a85028115156114e357fe5b0490509392505050565b60066020528060005260406000206000915054906101000a900460ff1681565b60045481565b6000600180549050905090565b60608060008060018054905060405190808252806020026020018201604052801561155a5781602001602082028038833980820191505090505b50925060009150600090505b6001805490508110156116135760018181548110151561158257fe5b906000526020600020906006020160000160009054906101000a900473ffffffffffffffffffffffffffffffffffffffff1683838151811015156115c257fe5b9060200190602002019073ffffffffffffffffffffffffffffffffffffffff16908173ffffffffffffffffffffffffffffffffffffffff168152505081806001019250508080600101915050611566565b82935050505090565b826004810192821561164b579160200282015b8281111561164a57825182559160200191906001019061162f565b5b5090506116589190611699565b5090565b8260048101928215611688579182015b8281111561168757825482559160010191906001019061166c565b5b5090506116959190611699565b5090565b6116bb91905b808211156116b757600081600090555060010161169f565b5090565b905600a165627a7a7230582073678457693719634ba09dd301c78ef7f1d1267bf25a9ef267368e047101bed30029",
  "source": "pragma solidity ^0.4.24;\n\ncontract Quiz\n{\n    address public quiz_master; // adress of the quizmaster i.e the host of the game\n    Player[] private players; //will store a list of all the players registered for the game\n    uint public regpfee; // stores the participation fees of each player\n    uint tfee; // total fees of the game\n    uint public tplayers = 0;\n    uint public curr_len = 0;\n    mapping(address => bool) public isWinner;   // balances, indexed by addresses\n    bool registrationDone;\n        constructor (uint num_players, uint registrationFee) public  payable//quiz master will dictate # of players and pfee\n        {\n            quiz_master = msg.sender;// store the address of the quiz_master\n            regpfee = registrationFee;\n            tfee = regpfee * num_players;\n            tplayers = num_players;\n        }\n    struct Question_Paper\n    {\n        uint256 correct_ans_1;\n        uint256 correct_ans_2;\n        uint256 correct_ans_3;\n        uint256 correct_ans_4;\n    }\n    \n    struct Player\n    {\n        address account; // stores his adress\n        uint256[4] ans_arr; // stores his 4 answers\n        uint256 time_stamp ; // stores the block number\n    }\n    \n\n    \n    function registerplayers(uint256[4] ans_arr) public payable returns (uint)// function to register the players\n    {\n        require(msg.sender != quiz_master, \"Quiz master can't play the game\");\n        require(msg.value == regpfee, \"Unacceptable Registration Fee\"); // the value must be greater than the pfee\n        // quiz_master.transfer(regpfee);\n        for(uint i = 0;i<4;i++)\n        {\n            uint temp_ans = ans_arr[i];\n            require (temp_ans==1 || temp_ans==2 || temp_ans==3 || temp_ans==4 || temp_ans==0 , \"Answer must be in {1,2,3,4} [0 for unknown]\");         \n        }\n        players.push(Player(msg.sender, ans_arr, block.number)); // push that player and his 4 choices in the player array\n        curr_len = players.length;\n        return curr_len;\n    }\n    \n    \n    // function regpfee(uint256 _pfee) public\n    // {\n    //     pfee = _pfee;\n    // }\n\n    function getnumplayers() public returns(uint)\n    {\n        return players.length;\n    }\n    \n    function getplayers() external view returns(address[]) //displays all registered players so far\n    {\n        address[] memory ids = new address[](players.length);\n        uint counter = 0;\n        for(uint i = 0; i < players.length; i++)\n        {\n            ids[counter] = players[i].account;\n            counter++;\n        }\n        return ids;\n    }\n    \n\n    modifier restricted()\n    {\n        // Ensure the participant awarding the ether is the manager\n        require(msg.sender == quiz_master,\"Only quiz master is allowed to perform this operation\");\n        _;\n    }\n    function registrationComplete() restricted\n    {\n        require(address(this).balance==tfee,\"tFee not equal to contractBalance\");\n        registrationDone = true;\n    }\n    function random() private view returns (uint)\n    {\n        return uint(keccak256(block.difficulty, now, players.length));\n    }\n    \n    function pickWinner(uint256[4]ans) public restricted payable\n    {\n        \n        Question_Paper storage question; // Question paper declared\n        question.correct_ans_1 = ans[0]; // correct ans decided by quiz_master as this is a restricted function\n        question.correct_ans_2 = ans[1];\n        question.correct_ans_3 = ans[2];\n        question.correct_ans_4 = ans[3];\n        Player[][4] q_correct_ans; // stores the ans for all the players in all the questions\n        for(uint i = 0;i < players.length; i++)\n        {\n            if(players[i].ans_arr[0] == question.correct_ans_1)\n            {\n                q_correct_ans[0].push(players[i]); // getting possible winnners of q1 based on ans\n            }\n            if(players[i].ans_arr[1] == question.correct_ans_2)\n            {\n                q_correct_ans[1].push(players[i]); // getting possible winners of q2 based on ans\n            }\n            if(players[i].ans_arr[2] == question.correct_ans_3)\n            {\n                q_correct_ans[2].push(players[i]); // getting possible winners of q3 based on ans\n            }\n            if(players[i].ans_arr[3] == question.correct_ans_4)\n            {\n                q_correct_ans[3].push(players[i]); // getting possible winners of q4 based on ans\n            }\n            \n            for(uint j = 0; j < 4; j++) // For each question\n            {\n                address round_winner;\n                uint256 round_stamp;\n                round_winner = q_correct_ans[j][0].account; // stores that question's winner's address\n                round_stamp = q_correct_ans[j][0].time_stamp; // stores that question's winning time stamp\n                for(uint k = 0; k < q_correct_ans[j].length; k++) // For Each Player\n                {\n                    if(round_stamp < q_correct_ans[j][k].time_stamp) // If time stamp is greater then replace winner\n                    {\n                        round_stamp = q_correct_ans[j][k].time_stamp;\n                        round_winner = q_correct_ans[j][k].account;\n                    }\n                }\n                // require(calcul(3,16,4)*tfee>0,\"Non Zero Reward\");\n                // round_winner.transfer(calcul(3,16,4)*tfee); // Need to send this amount to the account, But some error in Remix Right Now\n                // round_winner.transfer(20*10**18);\n                isWinner[round_winner]=true;\n            }\n        }\n\n        // return round_winner;\n    }\n    \n    function calcul(uint a, uint b, uint precision) view returns ( uint) { // just a multiplier with specified precision\n\n     return a*(10**precision)/b;\n    }\n    \n    function masterClaim () restricted \n    {\n\n        require (address(this).balance==calcul(1,4,4)*tfee,\"Contract balance more than 1/4 of tFee\");\n        quiz_master.transfer(address(this).balance);\n        \n    }\n    \n    function claim() public returns (uint)\n    {\n        // require(amount <= balanceOf[msg.sender]);\n        require(isWinner[msg.sender],\"Only winners can claim\");\n        uint amount = calcul(3,16,4)*tfee;\n        uint prevBal = msg.sender.balance;\n        msg.sender.transfer(amount);\n        require(prevBal+amount==msg.sender.balance,\"Not Received by Winner\");\n        return amount;\n    }\n}\n\n//msg.sender.transfer(amount);",
  "sourcePath": "/home/sai_charan/Desktop/junk/srsly/smart-contract-for-quiz-app/contracts/quiz.sol",
  "compiler": {
    "name": "solc",
    "version": "0.4.24+commit.e67f0147.Emscripten.clang"
  },
  "schemaVersion": "2.0.1",
  "updatedAt": "2018-11-02T05:49:22.368Z"
}